{
    "claimedEmitter": "0x68787ab0Ca5A4a8CC82177B4E4f206765Ce39956",
    "key": "28",
    "logIndex": 2,
    "messageRoot": "0x3945f27c4f49fbcfa635ea64f6996759b49f07c8e1912494bce5ad187f99d53b",
    "nonce": 58,
    "proof": [
        "f8f1a0f90859a9e586a4c8e66aa9f1d32a4931f1154c77ec712fc9ecc99a4ed776326ea06a557db722597a9aeda7c98bb7ffe686142f7ac18cc9c8dfb25d22031bc5f6b0a06c00bc782e736cf97c33ad6d7e6bd2fd39fa279fee4bc305a9a117865942a2d1a0a8748472369eb2aa13896d4affa91a3a9228164479c2bd8031d386e270b0b302a084893bd2913ed19cf8c3f6dff9ae3b185da5d48d8befacabcb3a0c687b972c79a09eb3558591217617199301798ae54f7a68d8a9d40f71e69ee9771be63ab3cd138080a0c1ae84c085bcad8ac7da99930f744eb6299213b996578e541639a647aed4952f8080808080808080",
        "f90211a01ae3959b059ad75342767a69756a715eaa78a197e8e50f05ca72d0a30c124623a0c506f11780d11f404615fd9b8d6469b894c864faee83e65dfe53432cbd8738c2a0edcfb8698c0c16908eddeeec015dc13d411567425ba8cca866029ce76c338ccea0ae070ce274ca2f45e789eb6b3ce73ff75862f1d1a486b89fd40c9af46ec5ecd0a0e25336ce8790d2e819346a186f64c7b6e5149c296d70974fe0e5590506274a0fa038fca8cb5118c4752c08aab2773377599fd3e903ebd095a6a4fd57cb54bb51cca018424f39f11e17dff48ed7a2ce79aa5534d0baf80e4243ed49afc09993d3e6b5a06034cd832ee0f9afa604e52dd36194afcfb490d6e0eec948279f13ca70f3f7a3a01de767efc90eaf623ba1d5e0590cffcdca7a46309d503859f6244e9b32c05cd7a06b1d893b5d8c89e8a4fdc7f78ef58330423581bc22d1475d0cc412b242fc3f4aa02e0fa09c622d4501e090b99bba2d6f3e73e1aba6c9d10c7fefe7d30387d6fee7a0a79b0390f680dd07adc82cec55240eab8da8393c53a291b7049b1b456315a210a01db287df72ab4378d8ad8176457d088f588611eff06b827b3c0d707b9f9228cca05f9c098db814b8531ed8ce9dc05551aa2731b31753af975265ea2eefd7d71c9ca02d960af158338798d676da70e5c93f08ab1364128e31c32b3ad748bd30f37e73a06b767cebaba781d29c0e85ebfe2a9318a44e8408cda2bfef3e299f9b08b6842d80",
        "f9050c20b9050802f905040184016ebfaeb901004000000000010000000000000100000000000200000000000000000000000000000080000000800000000000000000002000000000000000000000000020000000000000000000000000000c800000020000000000000000000000000000000040000000000000000000000000000200000000000000002000000010800000000000000000000000000000080000000000001080000000000000000000000100020000000004000000000000020000000000000000000000000000000000000000000002000000000001000001000020000000000000000000000000000000000018000000000000004000000000000000200000000000000400000000000000f903f8f89b9445cd94330ac3aea42cc21cf9315b745e27e768bdf863a08c5be1e5ebec7d5bd14f71427d1e84f3dd0314c0f7b2291e5b200ac8c7c3b925a0000000000000000000000000c13410f2d4ebac009f78eaa8c496460263867c05a0000000000000000000000000e8a7f02499402a72532669fdcc8d70674351b23da00000000000000000000000000000000000000000000000000000000000000000f89b9445cd94330ac3aea42cc21cf9315b745e27e768bdf863a0ddf252ad1be2c89b69c2b068fc378daa952ba7f163c4a11628f55a4df523b3efa0000000000000000000000000c13410f2d4ebac009f78eaa8c496460263867c05a0000000000000000000000000e8a7f02499402a72532669fdcc8d70674351b23da00000000000000000000000000000000000000000000000000000000000000002f901fd9468787ab0ca5a4a8cc82177b4e4f206765ce39956f863a069fba49bf5354b0f1c560ef32d7525874d05e65452e997b5556a9dedb5d7576fa0000000000000000000000000000000000000000000000000000000000000003aa03945f27c4f49fbcfa635ea64f6996759b49f07c8e1912494bce5ad187f99d53bb9018000000000000000000000000000000000000000000000000000000000000000200000000000000000000000000000000000000000000000000000000000000140000000000000000000000000000000000000000000000000000000000000003a000000000000000000000000e8a7f02499402a72532669fdcc8d70674351b23d0000000000000000000000005ae47c1ee4bef58291574dad5e11aece2f79e98b0000000000000000000000000000000000000000000000000000000000000064000000000000000000000000000000000000000000000000000000000000c35000000000000000000000000000000000000000000000000000000000000000c00000000000000000000000000000000000000000000000000000000000000060000000000000000000000000c13410f2d4ebac009f78eaa8c496460263867c05000000000000000000000000000000000000000000000000000000000000000200000000000000000000000045cd94330ac3aea42cc21cf9315b745e27e768bdf8bc94e8a7f02499402a72532669fdcc8d70674351b23df863a04e0b8b96097e818e136165437b47119a1f95ecfae8c068a60bd0a1394b238ef4a0000000000000000000000000c13410f2d4ebac009f78eaa8c496460263867c05a0000000000000000000000000c13410f2d4ebac009f78eaa8c496460263867c05b840000000000000000000000000000000000000000000000000000000000000000200000000000000000000000045cd94330ac3aea42cc21cf9315b745e27e768bd"
    ],
    "receiptsRoot": "0x05911bffdb32343df6d8af53971ade6b8959e1b06ad994715a8080524a2875d2"
}
